{
  "address": "0x5EE4B3D20E701E8d0bfcbaA2B99eC5cfc6Bf435c",
  "abi": [
    {
      "inputs": [
        {
          "internalType": "address",
          "name": "_attendaToken",
          "type": "address"
        }
      ],
      "stateMutability": "nonpayable",
      "type": "constructor"
    },
    {
      "anonymous": false,
      "inputs": [
        {
          "indexed": true,
          "internalType": "uint256",
          "name": "campaignId",
          "type": "uint256"
        }
      ],
      "name": "CampaignActivated",
      "type": "event"
    },
    {
      "anonymous": false,
      "inputs": [
        {
          "indexed": true,
          "internalType": "uint256",
          "name": "campaignId",
          "type": "uint256"
        }
      ],
      "name": "CampaignCompleted",
      "type": "event"
    },
    {
      "anonymous": false,
      "inputs": [
        {
          "indexed": true,
          "internalType": "uint256",
          "name": "campaignId",
          "type": "uint256"
        },
        {
          "indexed": true,
          "internalType": "address",
          "name": "advertiser",
          "type": "address"
        },
        {
          "indexed": false,
          "internalType": "string",
          "name": "title",
          "type": "string"
        },
        {
          "indexed": false,
          "internalType": "uint256",
          "name": "rewardAmount",
          "type": "uint256"
        }
      ],
      "name": "CampaignCreated",
      "type": "event"
    },
    {
      "anonymous": false,
      "inputs": [
        {
          "indexed": true,
          "internalType": "address",
          "name": "previousOwner",
          "type": "address"
        },
        {
          "indexed": true,
          "internalType": "address",
          "name": "newOwner",
          "type": "address"
        }
      ],
      "name": "OwnershipTransferred",
      "type": "event"
    },
    {
      "anonymous": false,
      "inputs": [
        {
          "indexed": false,
          "internalType": "uint256",
          "name": "newFee",
          "type": "uint256"
        }
      ],
      "name": "PlatformFeeUpdated",
      "type": "event"
    },
    {
      "anonymous": false,
      "inputs": [
        {
          "indexed": true,
          "internalType": "uint256",
          "name": "proofId",
          "type": "uint256"
        },
        {
          "indexed": true,
          "internalType": "uint256",
          "name": "campaignId",
          "type": "uint256"
        },
        {
          "indexed": true,
          "internalType": "address",
          "name": "user",
          "type": "address"
        }
      ],
      "name": "ProofSubmitted",
      "type": "event"
    },
    {
      "anonymous": false,
      "inputs": [
        {
          "indexed": true,
          "internalType": "uint256",
          "name": "proofId",
          "type": "uint256"
        },
        {
          "indexed": true,
          "internalType": "uint256",
          "name": "campaignId",
          "type": "uint256"
        },
        {
          "indexed": true,
          "internalType": "address",
          "name": "user",
          "type": "address"
        }
      ],
      "name": "ProofVerified",
      "type": "event"
    },
    {
      "anonymous": false,
      "inputs": [
        {
          "indexed": true,
          "internalType": "uint256",
          "name": "campaignId",
          "type": "uint256"
        },
        {
          "indexed": true,
          "internalType": "address",
          "name": "user",
          "type": "address"
        },
        {
          "indexed": false,
          "internalType": "uint256",
          "name": "amount",
          "type": "uint256"
        }
      ],
      "name": "RewardDistributed",
      "type": "event"
    },
    {
      "inputs": [],
      "name": "BASIS_POINTS",
      "outputs": [
        {
          "internalType": "uint256",
          "name": "",
          "type": "uint256"
        }
      ],
      "stateMutability": "view",
      "type": "function"
    },
    {
      "inputs": [],
      "name": "attendaToken",
      "outputs": [
        {
          "internalType": "contract AttendaToken",
          "name": "",
          "type": "address"
        }
      ],
      "stateMutability": "view",
      "type": "function"
    },
    {
      "inputs": [
        {
          "internalType": "uint256",
          "name": "",
          "type": "uint256"
        },
        {
          "internalType": "uint256",
          "name": "",
          "type": "uint256"
        }
      ],
      "name": "campaignParticipants",
      "outputs": [
        {
          "internalType": "address",
          "name": "",
          "type": "address"
        }
      ],
      "stateMutability": "view",
      "type": "function"
    },
    {
      "inputs": [
        {
          "internalType": "uint256",
          "name": "",
          "type": "uint256"
        }
      ],
      "name": "campaigns",
      "outputs": [
        {
          "internalType": "uint256",
          "name": "id",
          "type": "uint256"
        },
        {
          "internalType": "address",
          "name": "advertiser",
          "type": "address"
        },
        {
          "internalType": "string",
          "name": "title",
          "type": "string"
        },
        {
          "internalType": "string",
          "name": "description",
          "type": "string"
        },
        {
          "internalType": "string",
          "name": "ipfsHash",
          "type": "string"
        },
        {
          "internalType": "uint256",
          "name": "rewardAmount",
          "type": "uint256"
        },
        {
          "internalType": "uint256",
          "name": "maxParticipants",
          "type": "uint256"
        },
        {
          "internalType": "uint256",
          "name": "currentParticipants",
          "type": "uint256"
        },
        {
          "internalType": "uint256",
          "name": "duration",
          "type": "uint256"
        },
        {
          "internalType": "uint256",
          "name": "startTime",
          "type": "uint256"
        },
        {
          "internalType": "uint256",
          "name": "endTime",
          "type": "uint256"
        },
        {
          "internalType": "bool",
          "name": "isActive",
          "type": "bool"
        },
        {
          "internalType": "bool",
          "name": "isCompleted",
          "type": "bool"
        }
      ],
      "stateMutability": "view",
      "type": "function"
    },
    {
      "inputs": [
        {
          "internalType": "uint256",
          "name": "campaignId",
          "type": "uint256"
        }
      ],
      "name": "completeCampaign",
      "outputs": [],
      "stateMutability": "nonpayable",
      "type": "function"
    },
    {
      "inputs": [
        {
          "internalType": "string",
          "name": "title",
          "type": "string"
        },
        {
          "internalType": "string",
          "name": "description",
          "type": "string"
        },
        {
          "internalType": "string",
          "name": "ipfsHash",
          "type": "string"
        },
        {
          "internalType": "uint256",
          "name": "rewardAmount",
          "type": "uint256"
        },
        {
          "internalType": "uint256",
          "name": "maxParticipants",
          "type": "uint256"
        },
        {
          "internalType": "uint256",
          "name": "duration",
          "type": "uint256"
        }
      ],
      "name": "createCampaign",
      "outputs": [
        {
          "internalType": "uint256",
          "name": "",
          "type": "uint256"
        }
      ],
      "stateMutability": "nonpayable",
      "type": "function"
    },
    {
      "inputs": [
        {
          "internalType": "uint256",
          "name": "proofId",
          "type": "uint256"
        }
      ],
      "name": "distributeRewards",
      "outputs": [],
      "stateMutability": "nonpayable",
      "type": "function"
    },
    {
      "inputs": [],
      "name": "emergencyPause",
      "outputs": [],
      "stateMutability": "nonpayable",
      "type": "function"
    },
    {
      "inputs": [
        {
          "internalType": "uint256",
          "name": "campaignId",
          "type": "uint256"
        }
      ],
      "name": "getCampaign",
      "outputs": [
        {
          "components": [
            {
              "internalType": "uint256",
              "name": "id",
              "type": "uint256"
            },
            {
              "internalType": "address",
              "name": "advertiser",
              "type": "address"
            },
            {
              "internalType": "string",
              "name": "title",
              "type": "string"
            },
            {
              "internalType": "string",
              "name": "description",
              "type": "string"
            },
            {
              "internalType": "string",
              "name": "ipfsHash",
              "type": "string"
            },
            {
              "internalType": "uint256",
              "name": "rewardAmount",
              "type": "uint256"
            },
            {
              "internalType": "uint256",
              "name": "maxParticipants",
              "type": "uint256"
            },
            {
              "internalType": "uint256",
              "name": "currentParticipants",
              "type": "uint256"
            },
            {
              "internalType": "uint256",
              "name": "duration",
              "type": "uint256"
            },
            {
              "internalType": "uint256",
              "name": "startTime",
              "type": "uint256"
            },
            {
              "internalType": "uint256",
              "name": "endTime",
              "type": "uint256"
            },
            {
              "internalType": "bool",
              "name": "isActive",
              "type": "bool"
            },
            {
              "internalType": "bool",
              "name": "isCompleted",
              "type": "bool"
            }
          ],
          "internalType": "struct CampaignManager.Campaign",
          "name": "",
          "type": "tuple"
        }
      ],
      "stateMutability": "view",
      "type": "function"
    },
    {
      "inputs": [
        {
          "internalType": "uint256",
          "name": "campaignId",
          "type": "uint256"
        }
      ],
      "name": "getCampaignParticipants",
      "outputs": [
        {
          "internalType": "address[]",
          "name": "",
          "type": "address[]"
        }
      ],
      "stateMutability": "view",
      "type": "function"
    },
    {
      "inputs": [
        {
          "internalType": "uint256",
          "name": "proofId",
          "type": "uint256"
        }
      ],
      "name": "getProof",
      "outputs": [
        {
          "components": [
            {
              "internalType": "uint256",
              "name": "campaignId",
              "type": "uint256"
            },
            {
              "internalType": "address",
              "name": "user",
              "type": "address"
            },
            {
              "internalType": "uint256",
              "name": "watchTime",
              "type": "uint256"
            },
            {
              "internalType": "uint256",
              "name": "timestamp",
              "type": "uint256"
            },
            {
              "internalType": "bool",
              "name": "isVerified",
              "type": "bool"
            },
            {
              "internalType": "bool",
              "name": "isRewarded",
              "type": "bool"
            }
          ],
          "internalType": "struct CampaignManager.ProofOfAttention",
          "name": "",
          "type": "tuple"
        }
      ],
      "stateMutability": "view",
      "type": "function"
    },
    {
      "inputs": [],
      "name": "getTotalCampaigns",
      "outputs": [
        {
          "internalType": "uint256",
          "name": "",
          "type": "uint256"
        }
      ],
      "stateMutability": "view",
      "type": "function"
    },
    {
      "inputs": [],
      "name": "getTotalProofs",
      "outputs": [
        {
          "internalType": "uint256",
          "name": "",
          "type": "uint256"
        }
      ],
      "stateMutability": "view",
      "type": "function"
    },
    {
      "inputs": [
        {
          "internalType": "uint256",
          "name": "campaignId",
          "type": "uint256"
        },
        {
          "internalType": "address",
          "name": "user",
          "type": "address"
        }
      ],
      "name": "hasUserParticipated",
      "outputs": [
        {
          "internalType": "bool",
          "name": "",
          "type": "bool"
        }
      ],
      "stateMutability": "view",
      "type": "function"
    },
    {
      "inputs": [],
      "name": "owner",
      "outputs": [
        {
          "internalType": "address",
          "name": "",
          "type": "address"
        }
      ],
      "stateMutability": "view",
      "type": "function"
    },
    {
      "inputs": [],
      "name": "platformFee",
      "outputs": [
        {
          "internalType": "uint256",
          "name": "",
          "type": "uint256"
        }
      ],
      "stateMutability": "view",
      "type": "function"
    },
    {
      "inputs": [
        {
          "internalType": "uint256",
          "name": "",
          "type": "uint256"
        }
      ],
      "name": "proofs",
      "outputs": [
        {
          "internalType": "uint256",
          "name": "campaignId",
          "type": "uint256"
        },
        {
          "internalType": "address",
          "name": "user",
          "type": "address"
        },
        {
          "internalType": "uint256",
          "name": "watchTime",
          "type": "uint256"
        },
        {
          "internalType": "uint256",
          "name": "timestamp",
          "type": "uint256"
        },
        {
          "internalType": "bool",
          "name": "isVerified",
          "type": "bool"
        },
        {
          "internalType": "bool",
          "name": "isRewarded",
          "type": "bool"
        }
      ],
      "stateMutability": "view",
      "type": "function"
    },
    {
      "inputs": [],
      "name": "renounceOwnership",
      "outputs": [],
      "stateMutability": "nonpayable",
      "type": "function"
    },
    {
      "inputs": [
        {
          "internalType": "uint256",
          "name": "campaignId",
          "type": "uint256"
        },
        {
          "internalType": "uint256",
          "name": "watchTime",
          "type": "uint256"
        }
      ],
      "name": "submitProof",
      "outputs": [],
      "stateMutability": "nonpayable",
      "type": "function"
    },
    {
      "inputs": [
        {
          "internalType": "address",
          "name": "newOwner",
          "type": "address"
        }
      ],
      "name": "transferOwnership",
      "outputs": [],
      "stateMutability": "nonpayable",
      "type": "function"
    },
    {
      "inputs": [
        {
          "internalType": "uint256",
          "name": "newFee",
          "type": "uint256"
        }
      ],
      "name": "updatePlatformFee",
      "outputs": [],
      "stateMutability": "nonpayable",
      "type": "function"
    },
    {
      "inputs": [
        {
          "internalType": "uint256",
          "name": "",
          "type": "uint256"
        },
        {
          "internalType": "address",
          "name": "",
          "type": "address"
        }
      ],
      "name": "userParticipated",
      "outputs": [
        {
          "internalType": "bool",
          "name": "",
          "type": "bool"
        }
      ],
      "stateMutability": "view",
      "type": "function"
    },
    {
      "inputs": [
        {
          "internalType": "uint256",
          "name": "proofId",
          "type": "uint256"
        }
      ],
      "name": "verifyProof",
      "outputs": [],
      "stateMutability": "nonpayable",
      "type": "function"
    }
  ],
  "transactionHash": "0x4dc34cfc57a096edf7a5517113283978d4b293f78ad1fd6933ebfe2fb7ea54a6",
  "args": [
    "0xd305C380eE424584498B719c2c25b696AaC729e5"
  ],
  "numDeployments": 1,
  "solcInputHash": "6612593e17691bd23d2b929629f4d79e",
  "bytecode": "0x60806040526101f46009553480156200001757600080fd5b5060405162002661380380620026618339810160408190526200003a91620000bf565b62000045336200006f565b60018055600280546001600160a01b0319166001600160a01b0392909216919091179055620000f1565b600080546001600160a01b038381166001600160a01b0319831681178455604051919092169283917f8be0079c531659141344cd1fd0a4f28419497f9722a3daafe3b4186f6b6457e09190a35050565b600060208284031215620000d257600080fd5b81516001600160a01b0381168114620000ea57600080fd5b9392505050565b61256080620001016000396000f3fe608060405234801561001057600080fd5b506004361061014d5760003560e01c8063715018a6116100c35780639ddaf5aa1161007c5780639ddaf5aa146103da578063aa0b598814610466578063b5e9349414610479578063e1f1c4a71461048c578063f2fde38b14610495578063fd83cb8e146104a857600080fd5b8063715018a6146103735780638b6958ff1461037b5780638c6ab2381461038e5780638da5cb5b146103ae5780639553f180146103bf5780639b1bc0c9146103d257600080fd5b806327f2b91d1161011557806327f2b91d146102bc57806335abd49b146102cf5780633ad25ebc146102fa57806351858e27146103385780635598f8cc1461034057806359974e381461036057600080fd5b806311149ada14610152578063141961bc1461025c57806316f43dd4146102885780631ec036791461029e57806326232a2e146102b3575b600080fd5b6101ff610160366004611ed6565b6040805160c081018252600080825260208201819052918101829052606081018290526080810182905260a081019190915250600090815260066020908152604091829020825160c0810184528154815260018201546001600160a01b0316928101929092526002810154928201929092526003820154606082015260049091015460ff8082161515608084015261010090910416151560a082015290565b6040516102539190815181526020808301516001600160a01b031690820152604080830151908201526060808301519082015260808083015115159082015260a09182015115159181019190915260c00190565b60405180910390f35b61026f61026a366004611ed6565b6104bb565b6040516102539d9c9b9a99989796959493929190611f35565b6102906106c4565b604051908152602001610253565b6102b16102ac366004611fdc565b6106d4565b005b61029060095481565b6102906102ca3660046120a1565b610ae0565b6102e26102dd366004611fdc565b611030565b6040516001600160a01b039091168152602001610253565b610328610308366004612161565b600760209081526000928352604080842090915290825290205460ff1681565b6040519015158152602001610253565b6102b1611068565b61035361034e366004611ed6565b6110c5565b604051610253919061218d565b6102b161036e366004611ed6565b61138e565b6102b1611757565b6102b1610389366004611ed6565b61176b565b6103a161039c366004611ed6565b61195c565b6040516102539190612287565b6000546001600160a01b03166102e2565b6102b16103cd366004611ed6565b6119c8565b610290611c90565b61042d6103e8366004611ed6565b6006602052600090815260409020805460018201546002830154600384015460049094015492936001600160a01b039092169290919060ff8082169161010090041686565b604080519687526001600160a01b03909516602087015293850192909252606084015215156080830152151560a082015260c001610253565b6102b1610474366004611ed6565b611c9b565b610328610487366004612161565b611d30565b61029061271081565b6102b16104a33660046122d4565b611d5d565b6002546102e2906001600160a01b031681565b60056020526000908152604090208054600182015460028301805492936001600160a01b03909216926104ed906122f6565b80601f0160208091040260200160405190810160405280929190818152602001828054610519906122f6565b80156105665780601f1061053b57610100808354040283529160200191610566565b820191906000526020600020905b81548152906001019060200180831161054957829003601f168201915b50505050509080600301805461057b906122f6565b80601f01602080910402602001604051908101604052809291908181526020018280546105a7906122f6565b80156105f45780601f106105c9576101008083540402835291602001916105f4565b820191906000526020600020905b8154815290600101906020018083116105d757829003601f168201915b505050505090806004018054610609906122f6565b80601f0160208091040260200160405190810160405280929190818152602001828054610635906122f6565b80156106825780601f1061065757610100808354040283529160200191610682565b820191906000526020600020905b81548152906001019060200180831161066557829003601f168201915b5050505060058301546006840154600785015460088601546009870154600a880154600b90980154969794969395509193909260ff808216916101009004168d565b60006106cf60035490565b905090565b6000828152600560205260408120548391036107315760405162461bcd60e51b815260206004820152601760248201527610d85b5c185a59db88191bd95cc81b9bdd08195e1a5cdd604a1b60448201526064015b60405180910390fd5b6000838152600560205260409020600b0154839060ff1661078d5760405162461bcd60e51b815260206004820152601660248201527543616d706169676e206973206e6f742061637469766560501b6044820152606401610728565b6000818152600560205260409020600901544210156107ee5760405162461bcd60e51b815260206004820152601860248201527f43616d706169676e20686173206e6f74207374617274656400000000000000006044820152606401610728565b6000818152600560205260409020600a01544211156108445760405162461bcd60e51b815260206004820152601260248201527110d85b5c185a59db881a185cc8195b99195960721b6044820152606401610728565b61084c611dd3565b600084815260076020908152604080832033845290915290205460ff16156108b65760405162461bcd60e51b815260206004820152601960248201527f5573657220616c726561647920706172746963697061746564000000000000006044820152606401610728565b600084815260056020526040902060068101546007909101541061090f5760405162461bcd60e51b815260206004820152601060248201526f10d85b5c185a59db881a5cc8199d5b1b60821b6044820152606401610728565b6000848152600560205260409020600801548310156109865760405162461bcd60e51b815260206004820152602d60248201527f57617463682074696d65206d757374206265206174206c656173742063616d7060448201526c30b4b3b710323ab930ba34b7b760991b6064820152608401610728565b610994600480546001019055565b600061099f60045490565b6040805160c0810182528781523360208083018281528385018a8152426060860190815260006080870181815260a088018281528a835260068752898320985189559451600189810180546001600160a01b03939093166001600160a01b0319938416179055945160028a0155925160038901555160049097018054945115156101000261ff00199815159890981661ffff1990951694909417969096179092558b855260078084528686208587528452868620805460ff1916831790558c8652600884528686208054928301815586528386209091018054909216909317905589835260059052918120909101805492935090610a9c83612346565b90915550506040513390869083907f10c713ee1fb0193f787278bc11d85253a8ab0e3d53ddc4c0ffb03e9082db3ce190600090a450610ada60018055565b50505050565b6000610aea611dd3565b6000875111610b335760405162461bcd60e51b81526020600482015260156024820152745469746c652063616e6e6f7420626520656d70747960581b6044820152606401610728565b6000865111610b845760405162461bcd60e51b815260206004820152601b60248201527f4465736372697074696f6e2063616e6e6f7420626520656d70747900000000006044820152606401610728565b6000855111610bd55760405162461bcd60e51b815260206004820152601960248201527f4950465320686173682063616e6e6f7420626520656d707479000000000000006044820152606401610728565b60008411610c315760405162461bcd60e51b8152602060048201526024808201527f52657761726420616d6f756e74206d75737420626520677265617465722074686044820152630616e20360e41b6064820152608401610728565b60008311610c915760405162461bcd60e51b815260206004820152602760248201527f4d6178207061727469636970616e7473206d75737420626520677265617465726044820152660207468616e20360cc1b6064820152608401610728565b60008211610ce15760405162461bcd60e51b815260206004820152601f60248201527f4475726174696f6e206d7573742062652067726561746572207468616e2030006044820152606401610728565b6000610ced848661235f565b6002546040516370a0823160e01b815233600482015291925082916001600160a01b03909116906370a0823190602401602060405180830381865afa158015610d3a573d6000803e3d6000fd5b505050506040513d601f19601f82011682018060405250810190610d5e9190612376565b1015610dac5760405162461bcd60e51b815260206004820152601a60248201527f496e73756666696369656e7420746f6b656e2062616c616e63650000000000006044820152606401610728565b6002546040516323b872dd60e01b8152336004820152306024820152604481018390526001600160a01b03909116906323b872dd906064016020604051808303816000875af1158015610e03573d6000803e3d6000fd5b505050506040513d601f19601f82011682018060405250810190610e27919061238f565b610e6b5760405162461bcd60e51b8152602060048201526015602482015274151bdad95b881d1c985b9cd9995c8819985a5b1959605a1b6044820152606401610728565b610e79600380546001019055565b6000610e8460035490565b9050604051806101a00160405280828152602001336001600160a01b031681526020018a8152602001898152602001888152602001878152602001868152602001600081526020018581526020014281526020018542610ee491906123b1565b8152600160208083018290526000604093840181905285815260058252839020845181559084015191810180546001600160a01b0319166001600160a01b0390931692909217909155908201516002820190610f409082612413565b5060608201516003820190610f559082612413565b5060808201516004820190610f6a9082612413565b5060a0820151600582015560c0820151600682015560e082015160078201556101008083015160088301556101208301516009830155610140830151600a830155610160830151600b90920180546101809094015161ffff1990941692151561ff0019169290921792151502919091179055604051339082907f825fb10f7650ed27414d6f86acdf7d5946927d9b25001f045f1a2435deec02fe90611012908d908b906124d3565b60405180910390a391505061102660018055565b9695505050505050565b6008602052816000526040600020818154811061104c57600080fd5b6000918252602090912001546001600160a01b03169150829050565b611070611e2c565b60015b60035481116110c2576000818152600560205260409020600b015460ff16156110b0576000818152600560205260409020600b01805460ff191690555b806110ba81612346565b915050611073565b50565b61113d604051806101a001604052806000815260200160006001600160a01b031681526020016060815260200160608152602001606081526020016000815260200160008152602001600081526020016000815260200160008152602001600081526020016000151581526020016000151581525090565b60008281526005602090815260409182902082516101a0810184528154815260018201546001600160a01b0316928101929092526002810180549293919291840191611188906122f6565b80601f01602080910402602001604051908101604052809291908181526020018280546111b4906122f6565b80156112015780601f106111d657610100808354040283529160200191611201565b820191906000526020600020905b8154815290600101906020018083116111e457829003601f168201915b5050505050815260200160038201805461121a906122f6565b80601f0160208091040260200160405190810160405280929190818152602001828054611246906122f6565b80156112935780601f1061126857610100808354040283529160200191611293565b820191906000526020600020905b81548152906001019060200180831161127657829003601f168201915b505050505081526020016004820180546112ac906122f6565b80601f01602080910402602001604051908101604052809291908181526020018280546112d8906122f6565b80156113255780601f106112fa57610100808354040283529160200191611325565b820191906000526020600020905b81548152906001019060200180831161130857829003601f168201915b505050918352505060058201546020820152600682015460408201526007820154606082015260088201546080820152600982015460a0820152600a82015460c0820152600b9091015460ff808216151560e08401526101009182900416151591015292915050565b611396611dd3565b60008181526006602052604090206004015460ff166113f75760405162461bcd60e51b815260206004820152601c60248201527f50726f6f66206d757374206265207665726966696564206669727374000000006044820152606401610728565b600081815260066020526040902060040154610100900460ff161561145e5760405162461bcd60e51b815260206004820152601b60248201527f5265776172647320616c726561647920646973747269627574656400000000006044820152606401610728565b6000818152600660209081526040808320548084526005909252909120600101546001600160a01b031633146114e55760405162461bcd60e51b815260206004820152602660248201527f4f6e6c7920616476657274697365722063616e2064697374726962757465207260448201526565776172647360d01b6064820152608401610728565b60008181526005602081815260408084209092015485845260069091529082206001015460095491926001600160a01b039091169161271090611528908561235f565b61153291906124f5565b905060006115408285612517565b60025460405163a9059cbb60e01b81526001600160a01b0386811660048301526024820184905292935091169063a9059cbb906044016020604051808303816000875af1158015611595573d6000803e3d6000fd5b505050506040513d601f19601f820116820180604052508101906115b9919061238f565b6115fe5760405162461bcd60e51b815260206004820152601660248201527514995dd85c99081d1c985b9cd9995c8819985a5b195960521b6044820152606401610728565b81156116e4576002546001600160a01b031663a9059cbb6116276000546001600160a01b031690565b6040516001600160e01b031960e084901b1681526001600160a01b039091166004820152602481018590526044016020604051808303816000875af1158015611674573d6000803e3d6000fd5b505050506040513d601f19601f82011682018060405250810190611698919061238f565b6116e45760405162461bcd60e51b815260206004820152601c60248201527f506c6174666f726d20666565207472616e73666572206661696c6564000000006044820152606401610728565b60008681526006602052604090819020600401805461ff001916610100179055516001600160a01b0384169086907fab7542bafced3da2d8c881cb2dd1de859fac7c20d3650d2902ad389a64e08883906117419085815260200190565b60405180910390a350505050506110c260018055565b61175f611e2c565b6117696000611e86565b565b611773611dd3565b60008181526006602052604081205490036117c75760405162461bcd60e51b8152602060048201526014602482015273141c9bdbd988191bd95cc81b9bdd08195e1a5cdd60621b6044820152606401610728565b60008181526006602052604090206004015460ff16156118225760405162461bcd60e51b8152602060048201526016602482015275141c9bdbd988185b1c9958591e481d995c9a599a595960521b6044820152606401610728565b600081815260066020526040902060040154610100900460ff16156118825760405162461bcd60e51b8152602060048201526016602482015275141c9bdbd988185b1c9958591e481c995dd85c99195960521b6044820152606401610728565b6000818152600660209081526040808320548084526005909252909120600101546001600160a01b031633146118fa5760405162461bcd60e51b815260206004820152601a60248201527f4f6e6c7920616476657274697365722063616e207665726966790000000000006044820152606401610728565b60008281526006602052604080822060048101805460ff19166001908117909155015490516001600160a01b0390911691839185917f81389babe742afad96360fca3b5938036a4e3cc2fa98103a7e7e25ffe2ecaaf291a4506110c260018055565b6000818152600860209081526040918290208054835181840281018401909452808452606093928301828280156119bc57602002820191906000526020600020905b81546001600160a01b0316815260019091019060200180831161199e575b50505050509050919050565b600081815260056020526040812054829103611a205760405162461bcd60e51b815260206004820152601760248201527610d85b5c185a59db88191bd95cc81b9bdd08195e1a5cdd604a1b6044820152606401610728565b60008281526005602052604090206001015482906001600160a01b03163314611a8b5760405162461bcd60e51b815260206004820152601d60248201527f4f6e6c7920616476657274697365722063616e2063616c6c20746869730000006044820152606401610728565b6000838152600560205260409020600b015460ff16611aec5760405162461bcd60e51b815260206004820152601c60248201527f43616d706169676e20697320616c726561647920696e616374697665000000006044820152606401610728565b6000838152600560205260409020600a01544211611b4c5760405162461bcd60e51b815260206004820152601a60248201527f43616d706169676e20686173206e6f7420656e646564207965740000000000006044820152606401610728565b6000838152600560205260408120600b8101805461ffff19166101001790556007810154600690910154611b809190612517565b60008581526005602081905260409091200154611b9d919061235f565b90508015611c5f5760025460405163a9059cbb60e01b8152336004820152602481018390526001600160a01b039091169063a9059cbb906044016020604051808303816000875af1158015611bf6573d6000803e3d6000fd5b505050506040513d601f19601f82011682018060405250810190611c1a919061238f565b611c5f5760405162461bcd60e51b81526020600482015260166024820152751499599d5b99081d1c985b9cd9995c8819985a5b195960521b6044820152606401610728565b60405184907fbdef6a2e3aa892961a2dab48272f72f2bc1c7121eb1c0ed7e4a58e081c1e4be090600090a250505050565b60006106cf60045490565b611ca3611e2c565b6107d0811115611cf55760405162461bcd60e51b815260206004820152601e60248201527f506c6174666f726d206665652063616e6e6f74206578636565642032302500006044820152606401610728565b60098190556040518181527f45610d581145924dd7090a5017e5f2b1d6f42213bb2e95707ff86846bbfcb1ca9060200160405180910390a150565b60008281526007602090815260408083206001600160a01b038516845290915290205460ff165b92915050565b611d65611e2c565b6001600160a01b038116611dca5760405162461bcd60e51b815260206004820152602660248201527f4f776e61626c653a206e6577206f776e657220697320746865207a65726f206160448201526564647265737360d01b6064820152608401610728565b6110c281611e86565b600260015403611e255760405162461bcd60e51b815260206004820152601f60248201527f5265656e7472616e637947756172643a207265656e7472616e742063616c6c006044820152606401610728565b6002600155565b6000546001600160a01b031633146117695760405162461bcd60e51b815260206004820181905260248201527f4f776e61626c653a2063616c6c6572206973206e6f7420746865206f776e65726044820152606401610728565b600080546001600160a01b038381166001600160a01b0319831681178455604051919092169283917f8be0079c531659141344cd1fd0a4f28419497f9722a3daafe3b4186f6b6457e09190a35050565b600060208284031215611ee857600080fd5b5035919050565b6000815180845260005b81811015611f1557602081850181015186830182015201611ef9565b506000602082860101526020601f19601f83011685010191505092915050565b8d81526001600160a01b038d1660208201526101a060408201819052600090611f608382018f611eef565b90508281036060840152611f74818e611eef565b90508281036080840152611f88818d611eef565b9150508960a08301528860c08301528760e0830152866101008301528561012083015284610140830152611fc161016083018515159052565b8215156101808301529e9d5050505050505050505050505050565b60008060408385031215611fef57600080fd5b50508035926020909101359150565b634e487b7160e01b600052604160045260246000fd5b600082601f83011261202557600080fd5b813567ffffffffffffffff8082111561204057612040611ffe565b604051601f8301601f19908116603f0116810190828211818310171561206857612068611ffe565b8160405283815286602085880101111561208157600080fd5b836020870160208301376000602085830101528094505050505092915050565b60008060008060008060c087890312156120ba57600080fd5b863567ffffffffffffffff808211156120d257600080fd5b6120de8a838b01612014565b975060208901359150808211156120f457600080fd5b6121008a838b01612014565b9650604089013591508082111561211657600080fd5b5061212389828a01612014565b945050606087013592506080870135915060a087013590509295509295509295565b80356001600160a01b038116811461215c57600080fd5b919050565b6000806040838503121561217457600080fd5b8235915061218460208401612145565b90509250929050565b6020815281516020820152600060208301516121b460408401826001600160a01b03169052565b5060408301516101a08060608501526121d16101c0850183611eef565b91506060850151601f19808685030160808701526121ef8483611eef565b935060808701519150808685030160a08701525061220d8382611eef565b92505060a085015160c085015260c085015160e085015260e08501516101008181870152808701519150506101208181870152808701519150506101408181870152808701519150506101608181870152808701519150506101806122758187018315159052565b90950151151593019290925250919050565b6020808252825182820181905260009190848201906040850190845b818110156122c85783516001600160a01b0316835292840192918401916001016122a3565b50909695505050505050565b6000602082840312156122e657600080fd5b6122ef82612145565b9392505050565b600181811c9082168061230a57607f821691505b60208210810361232a57634e487b7160e01b600052602260045260246000fd5b50919050565b634e487b7160e01b600052601160045260246000fd5b60006001820161235857612358612330565b5060010190565b8082028115828204841417611d5757611d57612330565b60006020828403121561238857600080fd5b5051919050565b6000602082840312156123a157600080fd5b815180151581146122ef57600080fd5b80820180821115611d5757611d57612330565b601f82111561240e57600081815260208120601f850160051c810160208610156123eb5750805b601f850160051c820191505b8181101561240a578281556001016123f7565b5050505b505050565b815167ffffffffffffffff81111561242d5761242d611ffe565b6124418161243b84546122f6565b846123c4565b602080601f831160018114612476576000841561245e5750858301515b600019600386901b1c1916600185901b17855561240a565b600085815260208120601f198616915b828110156124a557888601518255948401946001909101908401612486565b50858210156124c35787850151600019600388901b60f8161c191681555b5050505050600190811b01905550565b6040815260006124e66040830185611eef565b90508260208301529392505050565b60008261251257634e487b7160e01b600052601260045260246000fd5b500490565b81810381811115611d5757611d5761233056fea2646970667358221220e0791e13155f32933c5b8c4328c5b44cbdb271f86a51b788bf206538d98f469964736f6c63430008110033",
  "devdoc": {
    "details": "Manages advertising campaigns and proof-of-attention verification",
    "kind": "dev",
    "methods": {
      "completeCampaign(uint256)": {
        "details": "Complete a campaign (only advertiser)"
      },
      "createCampaign(string,string,string,uint256,uint256,uint256)": {
        "details": "Create a new advertising campaign"
      },
      "distributeRewards(uint256)": {
        "details": "Distribute rewards for verified proofs"
      },
      "emergencyPause()": {
        "details": "Emergency pause for all campaigns (only owner)"
      },
      "getCampaign(uint256)": {
        "details": "Get campaign details"
      },
      "getCampaignParticipants(uint256)": {
        "details": "Get campaign participants"
      },
      "getProof(uint256)": {
        "details": "Get proof details"
      },
      "getTotalCampaigns()": {
        "details": "Get total campaigns count"
      },
      "getTotalProofs()": {
        "details": "Get total proofs count"
      },
      "hasUserParticipated(uint256,address)": {
        "details": "Check if user participated in campaign"
      },
      "owner()": {
        "details": "Returns the address of the current owner."
      },
      "renounceOwnership()": {
        "details": "Leaves the contract without owner. It will not be possible to call `onlyOwner` functions. Can only be called by the current owner. NOTE: Renouncing ownership will leave the contract without an owner, thereby disabling any functionality that is only available to the owner."
      },
      "submitProof(uint256,uint256)": {
        "details": "Submit proof of attention for a campaign"
      },
      "transferOwnership(address)": {
        "details": "Transfers ownership of the contract to a new account (`newOwner`). Can only be called by the current owner."
      },
      "updatePlatformFee(uint256)": {
        "details": "Update platform fee (only owner)"
      },
      "verifyProof(uint256)": {
        "details": "Verify proof of attention (only advertiser)"
      }
    },
    "title": "CampaignManager",
    "version": 1
  },
  "userdoc": {
    "kind": "user",
    "methods": {},
    "version": 1
  },
  "storageLayout": {
    "storage": [
      {
        "astId": 7,
        "contract": "contracts/CampaignManager.sol:CampaignManager",
        "label": "_owner",
        "offset": 0,
        "slot": "0",
        "type": "t_address"
      },
      {
        "astId": 123,
        "contract": "contracts/CampaignManager.sol:CampaignManager",
        "label": "_status",
        "offset": 0,
        "slot": "1",
        "type": "t_uint256"
      },
      {
        "astId": 1424,
        "contract": "contracts/CampaignManager.sol:CampaignManager",
        "label": "attendaToken",
        "offset": 0,
        "slot": "2",
        "type": "t_contract(AttendaToken)1078"
      },
      {
        "astId": 1467,
        "contract": "contracts/CampaignManager.sol:CampaignManager",
        "label": "_campaignIds",
        "offset": 0,
        "slot": "3",
        "type": "t_struct(Counter)895_storage"
      },
      {
        "astId": 1470,
        "contract": "contracts/CampaignManager.sol:CampaignManager",
        "label": "_proofIds",
        "offset": 0,
        "slot": "4",
        "type": "t_struct(Counter)895_storage"
      },
      {
        "astId": 1475,
        "contract": "contracts/CampaignManager.sol:CampaignManager",
        "label": "campaigns",
        "offset": 0,
        "slot": "5",
        "type": "t_mapping(t_uint256,t_struct(Campaign)1451_storage)"
      },
      {
        "astId": 1480,
        "contract": "contracts/CampaignManager.sol:CampaignManager",
        "label": "proofs",
        "offset": 0,
        "slot": "6",
        "type": "t_mapping(t_uint256,t_struct(ProofOfAttention)1464_storage)"
      },
      {
        "astId": 1486,
        "contract": "contracts/CampaignManager.sol:CampaignManager",
        "label": "userParticipated",
        "offset": 0,
        "slot": "7",
        "type": "t_mapping(t_uint256,t_mapping(t_address,t_bool))"
      },
      {
        "astId": 1491,
        "contract": "contracts/CampaignManager.sol:CampaignManager",
        "label": "campaignParticipants",
        "offset": 0,
        "slot": "8",
        "type": "t_mapping(t_uint256,t_array(t_address)dyn_storage)"
      },
      {
        "astId": 1494,
        "contract": "contracts/CampaignManager.sol:CampaignManager",
        "label": "platformFee",
        "offset": 0,
        "slot": "9",
        "type": "t_uint256"
      }
    ],
    "types": {
      "t_address": {
        "encoding": "inplace",
        "label": "address",
        "numberOfBytes": "20"
      },
      "t_array(t_address)dyn_storage": {
        "base": "t_address",
        "encoding": "dynamic_array",
        "label": "address[]",
        "numberOfBytes": "32"
      },
      "t_bool": {
        "encoding": "inplace",
        "label": "bool",
        "numberOfBytes": "1"
      },
      "t_contract(AttendaToken)1078": {
        "encoding": "inplace",
        "label": "contract AttendaToken",
        "numberOfBytes": "20"
      },
      "t_mapping(t_address,t_bool)": {
        "encoding": "mapping",
        "key": "t_address",
        "label": "mapping(address => bool)",
        "numberOfBytes": "32",
        "value": "t_bool"
      },
      "t_mapping(t_uint256,t_array(t_address)dyn_storage)": {
        "encoding": "mapping",
        "key": "t_uint256",
        "label": "mapping(uint256 => address[])",
        "numberOfBytes": "32",
        "value": "t_array(t_address)dyn_storage"
      },
      "t_mapping(t_uint256,t_mapping(t_address,t_bool))": {
        "encoding": "mapping",
        "key": "t_uint256",
        "label": "mapping(uint256 => mapping(address => bool))",
        "numberOfBytes": "32",
        "value": "t_mapping(t_address,t_bool)"
      },
      "t_mapping(t_uint256,t_struct(Campaign)1451_storage)": {
        "encoding": "mapping",
        "key": "t_uint256",
        "label": "mapping(uint256 => struct CampaignManager.Campaign)",
        "numberOfBytes": "32",
        "value": "t_struct(Campaign)1451_storage"
      },
      "t_mapping(t_uint256,t_struct(ProofOfAttention)1464_storage)": {
        "encoding": "mapping",
        "key": "t_uint256",
        "label": "mapping(uint256 => struct CampaignManager.ProofOfAttention)",
        "numberOfBytes": "32",
        "value": "t_struct(ProofOfAttention)1464_storage"
      },
      "t_string_storage": {
        "encoding": "bytes",
        "label": "string",
        "numberOfBytes": "32"
      },
      "t_struct(Campaign)1451_storage": {
        "encoding": "inplace",
        "label": "struct CampaignManager.Campaign",
        "members": [
          {
            "astId": 1426,
            "contract": "contracts/CampaignManager.sol:CampaignManager",
            "label": "id",
            "offset": 0,
            "slot": "0",
            "type": "t_uint256"
          },
          {
            "astId": 1428,
            "contract": "contracts/CampaignManager.sol:CampaignManager",
            "label": "advertiser",
            "offset": 0,
            "slot": "1",
            "type": "t_address"
          },
          {
            "astId": 1430,
            "contract": "contracts/CampaignManager.sol:CampaignManager",
            "label": "title",
            "offset": 0,
            "slot": "2",
            "type": "t_string_storage"
          },
          {
            "astId": 1432,
            "contract": "contracts/CampaignManager.sol:CampaignManager",
            "label": "description",
            "offset": 0,
            "slot": "3",
            "type": "t_string_storage"
          },
          {
            "astId": 1434,
            "contract": "contracts/CampaignManager.sol:CampaignManager",
            "label": "ipfsHash",
            "offset": 0,
            "slot": "4",
            "type": "t_string_storage"
          },
          {
            "astId": 1436,
            "contract": "contracts/CampaignManager.sol:CampaignManager",
            "label": "rewardAmount",
            "offset": 0,
            "slot": "5",
            "type": "t_uint256"
          },
          {
            "astId": 1438,
            "contract": "contracts/CampaignManager.sol:CampaignManager",
            "label": "maxParticipants",
            "offset": 0,
            "slot": "6",
            "type": "t_uint256"
          },
          {
            "astId": 1440,
            "contract": "contracts/CampaignManager.sol:CampaignManager",
            "label": "currentParticipants",
            "offset": 0,
            "slot": "7",
            "type": "t_uint256"
          },
          {
            "astId": 1442,
            "contract": "contracts/CampaignManager.sol:CampaignManager",
            "label": "duration",
            "offset": 0,
            "slot": "8",
            "type": "t_uint256"
          },
          {
            "astId": 1444,
            "contract": "contracts/CampaignManager.sol:CampaignManager",
            "label": "startTime",
            "offset": 0,
            "slot": "9",
            "type": "t_uint256"
          },
          {
            "astId": 1446,
            "contract": "contracts/CampaignManager.sol:CampaignManager",
            "label": "endTime",
            "offset": 0,
            "slot": "10",
            "type": "t_uint256"
          },
          {
            "astId": 1448,
            "contract": "contracts/CampaignManager.sol:CampaignManager",
            "label": "isActive",
            "offset": 0,
            "slot": "11",
            "type": "t_bool"
          },
          {
            "astId": 1450,
            "contract": "contracts/CampaignManager.sol:CampaignManager",
            "label": "isCompleted",
            "offset": 1,
            "slot": "11",
            "type": "t_bool"
          }
        ],
        "numberOfBytes": "384"
      },
      "t_struct(Counter)895_storage": {
        "encoding": "inplace",
        "label": "struct Counters.Counter",
        "members": [
          {
            "astId": 894,
            "contract": "contracts/CampaignManager.sol:CampaignManager",
            "label": "_value",
            "offset": 0,
            "slot": "0",
            "type": "t_uint256"
          }
        ],
        "numberOfBytes": "32"
      },
      "t_struct(ProofOfAttention)1464_storage": {
        "encoding": "inplace",
        "label": "struct CampaignManager.ProofOfAttention",
        "members": [
          {
            "astId": 1453,
            "contract": "contracts/CampaignManager.sol:CampaignManager",
            "label": "campaignId",
            "offset": 0,
            "slot": "0",
            "type": "t_uint256"
          },
          {
            "astId": 1455,
            "contract": "contracts/CampaignManager.sol:CampaignManager",
            "label": "user",
            "offset": 0,
            "slot": "1",
            "type": "t_address"
          },
          {
            "astId": 1457,
            "contract": "contracts/CampaignManager.sol:CampaignManager",
            "label": "watchTime",
            "offset": 0,
            "slot": "2",
            "type": "t_uint256"
          },
          {
            "astId": 1459,
            "contract": "contracts/CampaignManager.sol:CampaignManager",
            "label": "timestamp",
            "offset": 0,
            "slot": "3",
            "type": "t_uint256"
          },
          {
            "astId": 1461,
            "contract": "contracts/CampaignManager.sol:CampaignManager",
            "label": "isVerified",
            "offset": 0,
            "slot": "4",
            "type": "t_bool"
          },
          {
            "astId": 1463,
            "contract": "contracts/CampaignManager.sol:CampaignManager",
            "label": "isRewarded",
            "offset": 1,
            "slot": "4",
            "type": "t_bool"
          }
        ],
        "numberOfBytes": "160"
      },
      "t_uint256": {
        "encoding": "inplace",
        "label": "uint256",
        "numberOfBytes": "32"
      }
    }
  }
}