{
  "address": "0x0d83eE345B43733d86aE99aD0bAfbbf680c320A7",
  "abi": [
    {
      "inputs": [
        {
          "internalType": "address",
          "name": "_attendaToken",
          "type": "address"
        }
      ],
      "stateMutability": "nonpayable",
      "type": "constructor"
    },
    {
      "anonymous": false,
      "inputs": [
        {
          "indexed": true,
          "internalType": "address",
          "name": "previousOwner",
          "type": "address"
        },
        {
          "indexed": true,
          "internalType": "address",
          "name": "newOwner",
          "type": "address"
        }
      ],
      "name": "OwnershipTransferred",
      "type": "event"
    },
    {
      "anonymous": false,
      "inputs": [
        {
          "indexed": true,
          "internalType": "uint256",
          "name": "proofId",
          "type": "uint256"
        },
        {
          "indexed": true,
          "internalType": "address",
          "name": "validator",
          "type": "address"
        },
        {
          "indexed": false,
          "internalType": "string",
          "name": "reason",
          "type": "string"
        }
      ],
      "name": "ProofRejected",
      "type": "event"
    },
    {
      "anonymous": false,
      "inputs": [
        {
          "indexed": true,
          "internalType": "uint256",
          "name": "proofId",
          "type": "uint256"
        },
        {
          "indexed": true,
          "internalType": "uint256",
          "name": "campaignId",
          "type": "uint256"
        },
        {
          "indexed": true,
          "internalType": "address",
          "name": "user",
          "type": "address"
        }
      ],
      "name": "ProofSubmitted",
      "type": "event"
    },
    {
      "anonymous": false,
      "inputs": [
        {
          "indexed": true,
          "internalType": "uint256",
          "name": "proofId",
          "type": "uint256"
        },
        {
          "indexed": true,
          "internalType": "address",
          "name": "validator",
          "type": "address"
        }
      ],
      "name": "ProofValidated",
      "type": "event"
    },
    {
      "anonymous": false,
      "inputs": [
        {
          "indexed": true,
          "internalType": "uint256",
          "name": "proofId",
          "type": "uint256"
        },
        {
          "indexed": true,
          "internalType": "address",
          "name": "user",
          "type": "address"
        },
        {
          "indexed": false,
          "internalType": "uint256",
          "name": "amount",
          "type": "uint256"
        }
      ],
      "name": "RewardDistributed",
      "type": "event"
    },
    {
      "anonymous": false,
      "inputs": [
        {
          "indexed": true,
          "internalType": "uint256",
          "name": "campaignId",
          "type": "uint256"
        }
      ],
      "name": "ValidationCriteriaUpdated",
      "type": "event"
    },
    {
      "anonymous": false,
      "inputs": [
        {
          "indexed": true,
          "internalType": "address",
          "name": "validator",
          "type": "address"
        }
      ],
      "name": "ValidatorAdded",
      "type": "event"
    },
    {
      "anonymous": false,
      "inputs": [
        {
          "indexed": true,
          "internalType": "address",
          "name": "validator",
          "type": "address"
        }
      ],
      "name": "ValidatorRemoved",
      "type": "event"
    },
    {
      "inputs": [
        {
          "internalType": "address",
          "name": "validator",
          "type": "address"
        }
      ],
      "name": "addValidator",
      "outputs": [],
      "stateMutability": "nonpayable",
      "type": "function"
    },
    {
      "inputs": [],
      "name": "attendaToken",
      "outputs": [
        {
          "internalType": "contract AttendaToken",
          "name": "",
          "type": "address"
        }
      ],
      "stateMutability": "view",
      "type": "function"
    },
    {
      "inputs": [
        {
          "internalType": "uint256",
          "name": "",
          "type": "uint256"
        },
        {
          "internalType": "uint256",
          "name": "",
          "type": "uint256"
        }
      ],
      "name": "campaignProofs",
      "outputs": [
        {
          "internalType": "address",
          "name": "",
          "type": "address"
        }
      ],
      "stateMutability": "view",
      "type": "function"
    },
    {
      "inputs": [
        {
          "internalType": "uint256",
          "name": "",
          "type": "uint256"
        }
      ],
      "name": "campaignValidationCriteria",
      "outputs": [
        {
          "internalType": "uint256",
          "name": "minWatchDuration",
          "type": "uint256"
        },
        {
          "internalType": "uint256",
          "name": "maxWatchDuration",
          "type": "uint256"
        },
        {
          "internalType": "bool",
          "name": "requireInteraction",
          "type": "bool"
        },
        {
          "internalType": "bool",
          "name": "requireScrollDepth",
          "type": "bool"
        },
        {
          "internalType": "uint256",
          "name": "minScrollDepth",
          "type": "uint256"
        }
      ],
      "stateMutability": "view",
      "type": "function"
    },
    {
      "inputs": [
        {
          "internalType": "uint256",
          "name": "proofId",
          "type": "uint256"
        }
      ],
      "name": "distributeReward",
      "outputs": [],
      "stateMutability": "nonpayable",
      "type": "function"
    },
    {
      "inputs": [],
      "name": "emergencyPause",
      "outputs": [],
      "stateMutability": "nonpayable",
      "type": "function"
    },
    {
      "inputs": [
        {
          "internalType": "uint256",
          "name": "campaignId",
          "type": "uint256"
        }
      ],
      "name": "getCampaignProofs",
      "outputs": [
        {
          "internalType": "address[]",
          "name": "",
          "type": "address[]"
        }
      ],
      "stateMutability": "view",
      "type": "function"
    },
    {
      "inputs": [
        {
          "internalType": "uint256",
          "name": "proofId",
          "type": "uint256"
        }
      ],
      "name": "getProof",
      "outputs": [
        {
          "components": [
            {
              "internalType": "uint256",
              "name": "id",
              "type": "uint256"
            },
            {
              "internalType": "address",
              "name": "user",
              "type": "address"
            },
            {
              "internalType": "uint256",
              "name": "campaignId",
              "type": "uint256"
            },
            {
              "internalType": "uint256",
              "name": "watchDuration",
              "type": "uint256"
            },
            {
              "internalType": "uint256",
              "name": "timestamp",
              "type": "uint256"
            },
            {
              "internalType": "string",
              "name": "ipfsProofHash",
              "type": "string"
            },
            {
              "internalType": "bool",
              "name": "isValidated",
              "type": "bool"
            },
            {
              "internalType": "bool",
              "name": "isRewarded",
              "type": "bool"
            },
            {
              "internalType": "uint256",
              "name": "rewardAmount",
              "type": "uint256"
            }
          ],
          "internalType": "struct ProofOfAttention.AttentionProof",
          "name": "",
          "type": "tuple"
        }
      ],
      "stateMutability": "view",
      "type": "function"
    },
    {
      "inputs": [
        {
          "internalType": "uint256",
          "name": "proofId",
          "type": "uint256"
        }
      ],
      "name": "getProofValidationCount",
      "outputs": [
        {
          "internalType": "uint256",
          "name": "",
          "type": "uint256"
        }
      ],
      "stateMutability": "view",
      "type": "function"
    },
    {
      "inputs": [],
      "name": "getTotalProofs",
      "outputs": [
        {
          "internalType": "uint256",
          "name": "",
          "type": "uint256"
        }
      ],
      "stateMutability": "view",
      "type": "function"
    },
    {
      "inputs": [
        {
          "internalType": "uint256",
          "name": "campaignId",
          "type": "uint256"
        }
      ],
      "name": "getValidationCriteria",
      "outputs": [
        {
          "components": [
            {
              "internalType": "uint256",
              "name": "minWatchDuration",
              "type": "uint256"
            },
            {
              "internalType": "uint256",
              "name": "maxWatchDuration",
              "type": "uint256"
            },
            {
              "internalType": "bool",
              "name": "requireInteraction",
              "type": "bool"
            },
            {
              "internalType": "bool",
              "name": "requireScrollDepth",
              "type": "bool"
            },
            {
              "internalType": "uint256",
              "name": "minScrollDepth",
              "type": "uint256"
            }
          ],
          "internalType": "struct ProofOfAttention.ValidationCriteria",
          "name": "",
          "type": "tuple"
        }
      ],
      "stateMutability": "view",
      "type": "function"
    },
    {
      "inputs": [
        {
          "internalType": "uint256",
          "name": "campaignId",
          "type": "uint256"
        },
        {
          "internalType": "address",
          "name": "user",
          "type": "address"
        }
      ],
      "name": "hasUserSubmittedProof",
      "outputs": [
        {
          "internalType": "bool",
          "name": "",
          "type": "bool"
        }
      ],
      "stateMutability": "view",
      "type": "function"
    },
    {
      "inputs": [
        {
          "internalType": "uint256",
          "name": "proofId",
          "type": "uint256"
        },
        {
          "internalType": "address",
          "name": "validator",
          "type": "address"
        }
      ],
      "name": "isProofValidatedBy",
      "outputs": [
        {
          "internalType": "bool",
          "name": "",
          "type": "bool"
        }
      ],
      "stateMutability": "view",
      "type": "function"
    },
    {
      "inputs": [
        {
          "internalType": "address",
          "name": "validator",
          "type": "address"
        }
      ],
      "name": "isValidator",
      "outputs": [
        {
          "internalType": "bool",
          "name": "",
          "type": "bool"
        }
      ],
      "stateMutability": "view",
      "type": "function"
    },
    {
      "inputs": [],
      "name": "owner",
      "outputs": [
        {
          "internalType": "address",
          "name": "",
          "type": "address"
        }
      ],
      "stateMutability": "view",
      "type": "function"
    },
    {
      "inputs": [
        {
          "internalType": "uint256",
          "name": "",
          "type": "uint256"
        }
      ],
      "name": "proofValidationCount",
      "outputs": [
        {
          "internalType": "uint256",
          "name": "",
          "type": "uint256"
        }
      ],
      "stateMutability": "view",
      "type": "function"
    },
    {
      "inputs": [
        {
          "internalType": "uint256",
          "name": "",
          "type": "uint256"
        },
        {
          "internalType": "address",
          "name": "",
          "type": "address"
        }
      ],
      "name": "proofValidations",
      "outputs": [
        {
          "internalType": "bool",
          "name": "",
          "type": "bool"
        }
      ],
      "stateMutability": "view",
      "type": "function"
    },
    {
      "inputs": [
        {
          "internalType": "uint256",
          "name": "",
          "type": "uint256"
        }
      ],
      "name": "proofs",
      "outputs": [
        {
          "internalType": "uint256",
          "name": "id",
          "type": "uint256"
        },
        {
          "internalType": "address",
          "name": "user",
          "type": "address"
        },
        {
          "internalType": "uint256",
          "name": "campaignId",
          "type": "uint256"
        },
        {
          "internalType": "uint256",
          "name": "watchDuration",
          "type": "uint256"
        },
        {
          "internalType": "uint256",
          "name": "timestamp",
          "type": "uint256"
        },
        {
          "internalType": "string",
          "name": "ipfsProofHash",
          "type": "string"
        },
        {
          "internalType": "bool",
          "name": "isValidated",
          "type": "bool"
        },
        {
          "internalType": "bool",
          "name": "isRewarded",
          "type": "bool"
        },
        {
          "internalType": "uint256",
          "name": "rewardAmount",
          "type": "uint256"
        }
      ],
      "stateMutability": "view",
      "type": "function"
    },
    {
      "inputs": [
        {
          "internalType": "address",
          "name": "validator",
          "type": "address"
        }
      ],
      "name": "removeValidator",
      "outputs": [],
      "stateMutability": "nonpayable",
      "type": "function"
    },
    {
      "inputs": [],
      "name": "renounceOwnership",
      "outputs": [],
      "stateMutability": "nonpayable",
      "type": "function"
    },
    {
      "inputs": [
        {
          "internalType": "uint256",
          "name": "campaignId",
          "type": "uint256"
        },
        {
          "internalType": "uint256",
          "name": "minWatchDuration",
          "type": "uint256"
        },
        {
          "internalType": "uint256",
          "name": "maxWatchDuration",
          "type": "uint256"
        },
        {
          "internalType": "bool",
          "name": "requireInteraction",
          "type": "bool"
        },
        {
          "internalType": "bool",
          "name": "requireScrollDepth",
          "type": "bool"
        },
        {
          "internalType": "uint256",
          "name": "minScrollDepth",
          "type": "uint256"
        }
      ],
      "name": "setValidationCriteria",
      "outputs": [],
      "stateMutability": "nonpayable",
      "type": "function"
    },
    {
      "inputs": [
        {
          "internalType": "uint256",
          "name": "campaignId",
          "type": "uint256"
        },
        {
          "internalType": "uint256",
          "name": "watchDuration",
          "type": "uint256"
        },
        {
          "internalType": "string",
          "name": "ipfsProofHash",
          "type": "string"
        }
      ],
      "name": "submitProof",
      "outputs": [
        {
          "internalType": "uint256",
          "name": "",
          "type": "uint256"
        }
      ],
      "stateMutability": "nonpayable",
      "type": "function"
    },
    {
      "inputs": [
        {
          "internalType": "address",
          "name": "newOwner",
          "type": "address"
        }
      ],
      "name": "transferOwnership",
      "outputs": [],
      "stateMutability": "nonpayable",
      "type": "function"
    },
    {
      "inputs": [
        {
          "internalType": "uint256",
          "name": "newThreshold",
          "type": "uint256"
        }
      ],
      "name": "updateValidationThreshold",
      "outputs": [],
      "stateMutability": "nonpayable",
      "type": "function"
    },
    {
      "inputs": [
        {
          "internalType": "uint256",
          "name": "",
          "type": "uint256"
        },
        {
          "internalType": "address",
          "name": "",
          "type": "address"
        }
      ],
      "name": "userProofSubmitted",
      "outputs": [
        {
          "internalType": "bool",
          "name": "",
          "type": "bool"
        }
      ],
      "stateMutability": "view",
      "type": "function"
    },
    {
      "inputs": [
        {
          "internalType": "uint256",
          "name": "proofId",
          "type": "uint256"
        }
      ],
      "name": "validateProof",
      "outputs": [],
      "stateMutability": "nonpayable",
      "type": "function"
    },
    {
      "inputs": [],
      "name": "validationThreshold",
      "outputs": [
        {
          "internalType": "uint256",
          "name": "",
          "type": "uint256"
        }
      ],
      "stateMutability": "view",
      "type": "function"
    },
    {
      "inputs": [
        {
          "internalType": "address",
          "name": "",
          "type": "address"
        }
      ],
      "name": "validators",
      "outputs": [
        {
          "internalType": "bool",
          "name": "",
          "type": "bool"
        }
      ],
      "stateMutability": "view",
      "type": "function"
    }
  ],
  "transactionHash": "0x7681554d58f1d568806bc678fe64770d6da42c0f93df12fb21d9dce16834c8f3",
  "args": [
    "0xd305C380eE424584498B719c2c25b696AaC729e5"
  ],
  "numDeployments": 1,
  "solcInputHash": "6612593e17691bd23d2b929629f4d79e",
  "bytecode": "0x608060405260036008553480156200001657600080fd5b5060405162001f4b38038062001f4b8339810160408190526200003991620000da565b62000044336200008a565b6001808055600280546001600160a01b0319166001600160a01b039390931692909217909155336000908152600960205260409020805460ff191690911790556200010c565b600080546001600160a01b038381166001600160a01b0319831681178455604051919092169283917f8be0079c531659141344cd1fd0a4f28419497f9722a3daafe3b4186f6b6457e09190a35050565b600060208284031215620000ed57600080fd5b81516001600160a01b03811681146200010557600080fd5b9392505050565b611e2f806200011c6000396000f3fe608060405234801561001057600080fd5b50600436106101c45760003560e01c8063954f706b116100f9578063c92d6c5f11610097578063f2fde38b11610071578063f2fde38b146104e9578063fa52c7d8146104fc578063facd743b1461051f578063fd83cb8e1461054b57600080fd5b8063c92d6c5f14610494578063eeb6babf146104a7578063f25a2540146104b057600080fd5b80639b1bc0c9116100d35780639b1bc0c9146103f85780639ddaf5aa14610400578063a25c934114610428578063c1efb94c1461043b57600080fd5b8063954f706b1461036257806395f01e58146103d257806396a27761146103e557600080fd5b80634d238c8e11610166578063715018a611610140578063715018a6146103025780638da5cb5b1461030a5780638f963ef21461032f578063940a4e451461034f57600080fd5b80634d238c8e146102d45780634e8ca983146102e757806351858e27146102fa57600080fd5b80631e7731b9116101a25780631e7731b914610250578063292145bd1461026557806340a141ff1461029357806349941671146102a657600080fd5b806311149ada146101c9578063188f00b2146101f25780631d4f109614610230575b600080fd5b6101dc6101d73660046118a6565b61055e565b6040516101e99190611905565b60405180910390f35b6102206102003660046119bf565b600660209081526000928352604080842090915290825290205460ff1681565b60405190151581526020016101e9565b61024361023e3660046118a6565b6106d7565b6040516101e991906119eb565b61026361025e3660046118a6565b610743565b005b6102856102733660046118a6565b6000908152600b602052604090205490565b6040519081526020016101e9565b6102636102a1366004611a38565b6107a5565b6102206102b43660046119bf565b600a60209081526000928352604080842090915290825290205460ff1681565b6102636102e2366004611a38565b6108bc565b6102636102f53660046118a6565b6109c5565b610263610d5a565b610263610dda565b6000546001600160a01b03165b6040516001600160a01b0390911681526020016101e9565b61028561033d3660046118a6565b600b6020526000908152604090205481565b61026361035d3660046118a6565b610dee565b6103a46103703660046118a6565b60056020526000908152604090208054600182015460028301546003909301549192909160ff808316926101009004169085565b604080519586526020860194909452911515928401929092529015156060830152608082015260a0016101e9565b6102856103e0366004611a69565b61108e565b6102636103f3366004611b3b565b611446565b6102856114f7565b61041361040e3660046118a6565b611507565b6040516101e999989796959493929190611b99565b6102206104363660046119bf565b6115eb565b61044e6104493660046118a6565b611618565b6040516101e99190600060a08201905082518252602083015160208301526040830151151560408301526060830151151560608301526080830151608083015292915050565b6103176104a2366004611bf6565b6116a9565b61028560085481565b6102206104be3660046119bf565b6000918252600a602090815260408084206001600160a01b0393909316845291905290205460ff1690565b6102636104f7366004611a38565b6116e1565b61022061050a366004611a38565b60096020526000908152604090205460ff1681565b61022061052d366004611a38565b6001600160a01b031660009081526009602052604090205460ff1690565b600254610317906001600160a01b031681565b6105ba6040518061012001604052806000815260200160006001600160a01b0316815260200160008152602001600081526020016000815260200160608152602001600015158152602001600015158152602001600081525090565b6000828152600460208181526040928390208351610120810185528154815260018201546001600160a01b0316928101929092526002810154938201939093526003830154606082015290820154608082015260058201805491929160a08401919061062590611c18565b80601f016020809104026020016040519081016040528092919081815260200182805461065190611c18565b801561069e5780601f106106735761010080835404028352916020019161069e565b820191906000526020600020905b81548152906001019060200180831161068157829003601f168201915b5050509183525050600682015460ff80821615156020840152610100909104161515604082015260079091015460609091015292915050565b60008181526007602090815260409182902080548351818402810184019094528084526060939283018282801561073757602002820191906000526020600020905b81546001600160a01b03168152600190910190602001808311610719575b50505050509050919050565b61074b611757565b600081116107a05760405162461bcd60e51b815260206004820181905260248201527f5468726573686f6c64206d7573742062652067726561746572207468616e203060448201526064015b60405180910390fd5b600855565b6107ad611757565b6001600160a01b03811660009081526009602052604090205460ff166108075760405162461bcd60e51b815260206004820152600f60248201526e2737ba1030903b30b634b230ba37b960891b6044820152606401610797565b6000546001600160a01b03166001600160a01b0316816001600160a01b0316036108735760405162461bcd60e51b815260206004820181905260248201527f43616e6e6f742072656d6f7665206f776e65722061732076616c696461746f726044820152606401610797565b6001600160a01b038116600081815260096020526040808220805460ff19169055517fe1434e25d6611e0db941968fdc97811c982ac1602e951637d206f5fdda9dd8f19190a250565b6108c4611757565b6001600160a01b03811661091a5760405162461bcd60e51b815260206004820152601960248201527f496e76616c69642076616c696461746f722061646472657373000000000000006044820152606401610797565b6001600160a01b03811660009081526009602052604090205460ff16156109795760405162461bcd60e51b815260206004820152601360248201527220b63932b0b23c9030903b30b634b230ba37b960691b6044820152606401610797565b6001600160a01b038116600081815260096020526040808220805460ff19166001179055517fe366c1c0452ed8eec96861e9e54141ebff23c9ec89fe27b996b45f5ec38849879190a250565b3360009081526009602052604090205460ff16610a245760405162461bcd60e51b815260206004820152601d60248201527f4f6e6c792076616c696461746f72732063616e2063616c6c20746869730000006044820152606401610797565b600081815260046020526040812054829103610a795760405162461bcd60e51b8152602060048201526014602482015273141c9bdbd988191bd95cc81b9bdd08195e1a5cdd60621b6044820152606401610797565b600082815260046020526040902060060154829060ff1615610add5760405162461bcd60e51b815260206004820152601760248201527f50726f6f6620616c72656164792076616c6964617465640000000000000000006044820152606401610797565b6000838152600a6020908152604080832033845290915290205460ff1615610b475760405162461bcd60e51b815260206004820152601c60248201527f416c72656164792076616c69646174656420746869732070726f6f66000000006044820152606401610797565b6000838152600460209081526040808320600280820154855260058452828520835160a08101855281548152600180830154828801529282015460ff8082161515838801526101009091041615156060820152600390910154608082015283519485019093529383528151909391929015801590610bc9575082516003850154105b15610c0357505060408051808201909152601881527715d85d18da08191d5c985d1a5bdb881d1bdbc81cda1bdc9d60421b60208201526000905b60008360200151118015610c1e575082602001518460030154115b15610c575750506040805180820190915260178152765761746368206475726174696f6e20746f6f206c6f6e6760481b60208201526000905b8115610d0e576000878152600a602090815260408083203384528252808320805460ff19166001179055898352600b9091528120805491610c9783611c68565b9091555050604051339088907fdf0dd3424b84ad41aac34c7beab2d6a3bdc3a42c198726627d92f194565a616290600090a36008546000888152600b602052604090205410610d095760068401805460ff1916600117905560038401546002850154610d0391906117b1565b60078501555b610d51565b336001600160a01b0316877fd335ceb9e9b5309dbaefabff78aaa012d3b53d0c7c8ccc74b41eafa8f9de547e83604051610d489190611c81565b60405180910390a35b50505050505050565b610d62611757565b60015b6003548111610dd75760008181526004602052604090206006015460ff168015610da65750600081815260046020526040902060060154610100900460ff16155b15610dc5576000818152600460205260409020600601805460ff191690555b80610dcf81611c68565b915050610d65565b50565b610de2611757565b610dec60006117fd565b565b610df661184d565b600081815260046020526040812054829103610e4b5760405162461bcd60e51b8152602060048201526014602482015273141c9bdbd988191bd95cc81b9bdd08195e1a5cdd60621b6044820152606401610797565b6000828152600460205260409020600681015460ff16610ead5760405162461bcd60e51b815260206004820152601d60248201527f50726f6f66206d7573742062652076616c6964617465642066697273740000006044820152606401610797565b6006810154610100900460ff1615610f075760405162461bcd60e51b815260206004820152601a60248201527f52657761726420616c72656164792064697374726962757465640000000000006044820152606401610797565b6000816007015411610f5b5760405162461bcd60e51b815260206004820152601760248201527f4e6f2072657761726420746f20646973747269627574650000000000000000006044820152606401610797565b6002546001820154600783015460405163a9059cbb60e01b81526001600160a01b039283166004820152602481019190915291169063a9059cbb906044016020604051808303816000875af1158015610fb8573d6000803e3d6000fd5b505050506040513d601f19601f82011682018060405250810190610fdc9190611c94565b6110215760405162461bcd60e51b815260206004820152601660248201527514995dd85c99081d1c985b9cd9995c8819985a5b195960521b6044820152606401610797565b60068101805461ff001916610100179055600181015460078201546040516001600160a01b039092169185917fab7542bafced3da2d8c881cb2dd1de859fac7c20d3650d2902ad389a64e088839161107b91815260200190565b60405180910390a35050610dd760018055565b600061109861184d565b60008251116110e95760405162461bcd60e51b815260206004820152601f60248201527f495046532070726f6f6620686173682063616e6e6f7420626520656d707479006044820152606401610797565b600083116111475760405162461bcd60e51b815260206004820152602560248201527f5761746368206475726174696f6e206d75737420626520677265617465722074604482015264068616e20360dc1b6064820152608401610797565b600084815260066020908152604080832033845290915290205460ff16156111c35760405162461bcd60e51b815260206004820152602960248201527f50726f6f6620616c7265616479207375626d697474656420666f7220746869736044820152681031b0b6b830b4b3b760b91b6064820152608401610797565b600084815260056020908152604091829020825160a0810184528154808252600183015493820193909352600282015460ff8082161515958301959095526101009004909316151560608401526003015460808301521561126a57805184101561126a5760405162461bcd60e51b815260206004820152601860248201527715d85d18da08191d5c985d1a5bdb881d1bdbc81cda1bdc9d60421b6044820152606401610797565b6020810151156112c25780602001518411156112c25760405162461bcd60e51b81526020600482015260176024820152765761746368206475726174696f6e20746f6f206c6f6e6760481b6044820152606401610797565b6112d0600380546001019055565b60006112db60035490565b60408051610120810182528281523360208083019182528284018b8152606084018b8152426080860190815260a086018c8152600060c0880181905260e088018190526101008801819052898152600495869052979097208651815594516001860180546001600160a01b0319166001600160a01b0390921691909117905591516002850155516003840155519082015591519293509160058201906113819082611d00565b5060c08201516006828101805460e086015161ffff1990911693151561ff00191693909317610100931515840217905592015160079182015560008881526020928352604080822033808452908552818320805460ff191660019081179091558b845293855281832080549485018155835293822090920180546001600160a01b031916841790559051889184917f10c713ee1fb0193f787278bc11d85253a8ab0e3d53ddc4c0ffb03e9082db3ce19190a491505061143f60018055565b9392505050565b61144e611757565b6040805160a0810182528681526020808201878152861515838501908152861515606085019081526080850187815260008d8152600590955286852095518655925160018601559051600285018054925115156101000261ff00199215159290921661ffff199093169290921717905551600390920191909155905187917f5934b5d46280b73f2218e6ab22013dea015fabccd70d6d800b1eccc4f55b73f891a2505050505050565b600061150260035490565b905090565b600460208190526000918252604090912080546001820154600283015460038401549484015460058501805494966001600160a01b0390941695929491929161154f90611c18565b80601f016020809104026020016040519081016040528092919081815260200182805461157b90611c18565b80156115c85780601f1061159d576101008083540402835291602001916115c8565b820191906000526020600020905b8154815290600101906020018083116115ab57829003601f168201915b505050506006830154600790930154919260ff8082169361010090920416915089565b60008281526006602090815260408083206001600160a01b038516845290915290205460ff165b92915050565b61164e6040518060a001604052806000815260200160008152602001600015158152602001600015158152602001600081525090565b50600090815260056020908152604091829020825160a08101845281548152600182015492810192909252600281015460ff808216151594840194909452610100900490921615156060820152600390910154608082015290565b600760205281600052604060002081815481106116c557600080fd5b6000918252602090912001546001600160a01b03169150829050565b6116e9611757565b6001600160a01b03811661174e5760405162461bcd60e51b815260206004820152602660248201527f4f776e61626c653a206e6577206f776e657220697320746865207a65726f206160448201526564647265737360d01b6064820152608401610797565b610dd7816117fd565b6000546001600160a01b03163314610dec5760405162461bcd60e51b815260206004820181905260248201527f4f776e61626c653a2063616c6c6572206973206e6f7420746865206f776e65726044820152606401610797565b600068056bc75e2d63100000600a61012c8511156117d1575060146117de565b60b48511156117de5750600f5b600a6117ea8284611dc0565b6117f49190611dd7565b95945050505050565b600080546001600160a01b038381166001600160a01b0319831681178455604051919092169283917f8be0079c531659141344cd1fd0a4f28419497f9722a3daafe3b4186f6b6457e09190a35050565b60026001540361189f5760405162461bcd60e51b815260206004820152601f60248201527f5265656e7472616e637947756172643a207265656e7472616e742063616c6c006044820152606401610797565b6002600155565b6000602082840312156118b857600080fd5b5035919050565b6000815180845260005b818110156118e5576020818501810151868301820152016118c9565b506000602082860101526020601f19601f83011685010191505092915050565b60208152815160208201526000602083015161192c60408401826001600160a01b03169052565b506040830151606083015260608301516080830152608083015160a083015260a08301516101208060c08501526119676101408501836118bf565b915060c085015161197c60e086018215159052565b5060e08501516101006119928187018315159052565b959095015193019290925250919050565b80356001600160a01b03811681146119ba57600080fd5b919050565b600080604083850312156119d257600080fd5b823591506119e2602084016119a3565b90509250929050565b6020808252825182820181905260009190848201906040850190845b81811015611a2c5783516001600160a01b031683529284019291840191600101611a07565b50909695505050505050565b600060208284031215611a4a57600080fd5b61143f826119a3565b634e487b7160e01b600052604160045260246000fd5b600080600060608486031215611a7e57600080fd5b8335925060208401359150604084013567ffffffffffffffff80821115611aa457600080fd5b818601915086601f830112611ab857600080fd5b813581811115611aca57611aca611a53565b604051601f8201601f19908116603f01168101908382118183101715611af257611af2611a53565b81604052828152896020848701011115611b0b57600080fd5b8260208601602083013760006020848301015280955050505050509250925092565b8015158114610dd757600080fd5b60008060008060008060c08789031215611b5457600080fd5b8635955060208701359450604087013593506060870135611b7481611b2d565b92506080870135611b8481611b2d565b8092505060a087013590509295509295509295565b60006101208b835260018060a01b038b1660208401528960408401528860608401528760808401528060a0840152611bd3818401886118bf565b95151560c0840152505091151560e0830152610100909101529695505050505050565b60008060408385031215611c0957600080fd5b50508035926020909101359150565b600181811c90821680611c2c57607f821691505b602082108103611c4c57634e487b7160e01b600052602260045260246000fd5b50919050565b634e487b7160e01b600052601160045260246000fd5b600060018201611c7a57611c7a611c52565b5060010190565b60208152600061143f60208301846118bf565b600060208284031215611ca657600080fd5b815161143f81611b2d565b601f821115611cfb57600081815260208120601f850160051c81016020861015611cd85750805b601f850160051c820191505b81811015611cf757828155600101611ce4565b5050505b505050565b815167ffffffffffffffff811115611d1a57611d1a611a53565b611d2e81611d288454611c18565b84611cb1565b602080601f831160018114611d635760008415611d4b5750858301515b600019600386901b1c1916600185901b178555611cf7565b600085815260208120601f198616915b82811015611d9257888601518255948401946001909101908401611d73565b5085821015611db05787850151600019600388901b60f8161c191681555b5050505050600190811b01905550565b808202811582820484141761161257611612611c52565b600082611df457634e487b7160e01b600052601260045260246000fd5b50049056fea2646970667358221220a7dd91854205824de67298036d452f5e545c4b84751eee590c5782e9b06dcb4a64736f6c63430008110033",
  "devdoc": {
    "details": "Handles verification and validation of user attention to advertisements",
    "kind": "dev",
    "methods": {
      "addValidator(address)": {
        "details": "Add a new validator"
      },
      "distributeReward(uint256)": {
        "details": "Distribute rewards for validated proofs"
      },
      "emergencyPause()": {
        "details": "Emergency pause for all validations (only owner)"
      },
      "getCampaignProofs(uint256)": {
        "details": "Get campaign proofs"
      },
      "getProof(uint256)": {
        "details": "Get proof details"
      },
      "getProofValidationCount(uint256)": {
        "details": "Get proof validation count"
      },
      "getTotalProofs()": {
        "details": "Get total proofs count"
      },
      "getValidationCriteria(uint256)": {
        "details": "Get validation criteria for a campaign"
      },
      "hasUserSubmittedProof(uint256,address)": {
        "details": "Check if user has submitted proof for campaign"
      },
      "isProofValidatedBy(uint256,address)": {
        "details": "Check if proof is validated by specific validator"
      },
      "isValidator(address)": {
        "details": "Check if address is validator"
      },
      "owner()": {
        "details": "Returns the address of the current owner."
      },
      "removeValidator(address)": {
        "details": "Remove a validator"
      },
      "renounceOwnership()": {
        "details": "Leaves the contract without owner. It will not be possible to call `onlyOwner` functions. Can only be called by the current owner. NOTE: Renouncing ownership will leave the contract without an owner, thereby disabling any functionality that is only available to the owner."
      },
      "setValidationCriteria(uint256,uint256,uint256,bool,bool,uint256)": {
        "details": "Set validation criteria for a campaign"
      },
      "submitProof(uint256,uint256,string)": {
        "details": "Submit proof of attention for a campaign"
      },
      "transferOwnership(address)": {
        "details": "Transfers ownership of the contract to a new account (`newOwner`). Can only be called by the current owner."
      },
      "updateValidationThreshold(uint256)": {
        "details": "Update validation threshold"
      },
      "validateProof(uint256)": {
        "details": "Validate a proof of attention (only validators)"
      }
    },
    "title": "ProofOfAttention",
    "version": 1
  },
  "userdoc": {
    "kind": "user",
    "methods": {},
    "version": 1
  },
  "storageLayout": {
    "storage": [
      {
        "astId": 7,
        "contract": "contracts/ProofOfAttention.sol:ProofOfAttention",
        "label": "_owner",
        "offset": 0,
        "slot": "0",
        "type": "t_address"
      },
      {
        "astId": 123,
        "contract": "contracts/ProofOfAttention.sol:ProofOfAttention",
        "label": "_status",
        "offset": 0,
        "slot": "1",
        "type": "t_uint256"
      },
      {
        "astId": 2307,
        "contract": "contracts/ProofOfAttention.sol:ProofOfAttention",
        "label": "attendaToken",
        "offset": 0,
        "slot": "2",
        "type": "t_contract(AttendaToken)1078"
      },
      {
        "astId": 2340,
        "contract": "contracts/ProofOfAttention.sol:ProofOfAttention",
        "label": "_proofIds",
        "offset": 0,
        "slot": "3",
        "type": "t_struct(Counter)895_storage"
      },
      {
        "astId": 2345,
        "contract": "contracts/ProofOfAttention.sol:ProofOfAttention",
        "label": "proofs",
        "offset": 0,
        "slot": "4",
        "type": "t_mapping(t_uint256,t_struct(AttentionProof)2326_storage)"
      },
      {
        "astId": 2350,
        "contract": "contracts/ProofOfAttention.sol:ProofOfAttention",
        "label": "campaignValidationCriteria",
        "offset": 0,
        "slot": "5",
        "type": "t_mapping(t_uint256,t_struct(ValidationCriteria)2337_storage)"
      },
      {
        "astId": 2356,
        "contract": "contracts/ProofOfAttention.sol:ProofOfAttention",
        "label": "userProofSubmitted",
        "offset": 0,
        "slot": "6",
        "type": "t_mapping(t_uint256,t_mapping(t_address,t_bool))"
      },
      {
        "astId": 2361,
        "contract": "contracts/ProofOfAttention.sol:ProofOfAttention",
        "label": "campaignProofs",
        "offset": 0,
        "slot": "7",
        "type": "t_mapping(t_uint256,t_array(t_address)dyn_storage)"
      },
      {
        "astId": 2364,
        "contract": "contracts/ProofOfAttention.sol:ProofOfAttention",
        "label": "validationThreshold",
        "offset": 0,
        "slot": "8",
        "type": "t_uint256"
      },
      {
        "astId": 2368,
        "contract": "contracts/ProofOfAttention.sol:ProofOfAttention",
        "label": "validators",
        "offset": 0,
        "slot": "9",
        "type": "t_mapping(t_address,t_bool)"
      },
      {
        "astId": 2374,
        "contract": "contracts/ProofOfAttention.sol:ProofOfAttention",
        "label": "proofValidations",
        "offset": 0,
        "slot": "10",
        "type": "t_mapping(t_uint256,t_mapping(t_address,t_bool))"
      },
      {
        "astId": 2378,
        "contract": "contracts/ProofOfAttention.sol:ProofOfAttention",
        "label": "proofValidationCount",
        "offset": 0,
        "slot": "11",
        "type": "t_mapping(t_uint256,t_uint256)"
      }
    ],
    "types": {
      "t_address": {
        "encoding": "inplace",
        "label": "address",
        "numberOfBytes": "20"
      },
      "t_array(t_address)dyn_storage": {
        "base": "t_address",
        "encoding": "dynamic_array",
        "label": "address[]",
        "numberOfBytes": "32"
      },
      "t_bool": {
        "encoding": "inplace",
        "label": "bool",
        "numberOfBytes": "1"
      },
      "t_contract(AttendaToken)1078": {
        "encoding": "inplace",
        "label": "contract AttendaToken",
        "numberOfBytes": "20"
      },
      "t_mapping(t_address,t_bool)": {
        "encoding": "mapping",
        "key": "t_address",
        "label": "mapping(address => bool)",
        "numberOfBytes": "32",
        "value": "t_bool"
      },
      "t_mapping(t_uint256,t_array(t_address)dyn_storage)": {
        "encoding": "mapping",
        "key": "t_uint256",
        "label": "mapping(uint256 => address[])",
        "numberOfBytes": "32",
        "value": "t_array(t_address)dyn_storage"
      },
      "t_mapping(t_uint256,t_mapping(t_address,t_bool))": {
        "encoding": "mapping",
        "key": "t_uint256",
        "label": "mapping(uint256 => mapping(address => bool))",
        "numberOfBytes": "32",
        "value": "t_mapping(t_address,t_bool)"
      },
      "t_mapping(t_uint256,t_struct(AttentionProof)2326_storage)": {
        "encoding": "mapping",
        "key": "t_uint256",
        "label": "mapping(uint256 => struct ProofOfAttention.AttentionProof)",
        "numberOfBytes": "32",
        "value": "t_struct(AttentionProof)2326_storage"
      },
      "t_mapping(t_uint256,t_struct(ValidationCriteria)2337_storage)": {
        "encoding": "mapping",
        "key": "t_uint256",
        "label": "mapping(uint256 => struct ProofOfAttention.ValidationCriteria)",
        "numberOfBytes": "32",
        "value": "t_struct(ValidationCriteria)2337_storage"
      },
      "t_mapping(t_uint256,t_uint256)": {
        "encoding": "mapping",
        "key": "t_uint256",
        "label": "mapping(uint256 => uint256)",
        "numberOfBytes": "32",
        "value": "t_uint256"
      },
      "t_string_storage": {
        "encoding": "bytes",
        "label": "string",
        "numberOfBytes": "32"
      },
      "t_struct(AttentionProof)2326_storage": {
        "encoding": "inplace",
        "label": "struct ProofOfAttention.AttentionProof",
        "members": [
          {
            "astId": 2309,
            "contract": "contracts/ProofOfAttention.sol:ProofOfAttention",
            "label": "id",
            "offset": 0,
            "slot": "0",
            "type": "t_uint256"
          },
          {
            "astId": 2311,
            "contract": "contracts/ProofOfAttention.sol:ProofOfAttention",
            "label": "user",
            "offset": 0,
            "slot": "1",
            "type": "t_address"
          },
          {
            "astId": 2313,
            "contract": "contracts/ProofOfAttention.sol:ProofOfAttention",
            "label": "campaignId",
            "offset": 0,
            "slot": "2",
            "type": "t_uint256"
          },
          {
            "astId": 2315,
            "contract": "contracts/ProofOfAttention.sol:ProofOfAttention",
            "label": "watchDuration",
            "offset": 0,
            "slot": "3",
            "type": "t_uint256"
          },
          {
            "astId": 2317,
            "contract": "contracts/ProofOfAttention.sol:ProofOfAttention",
            "label": "timestamp",
            "offset": 0,
            "slot": "4",
            "type": "t_uint256"
          },
          {
            "astId": 2319,
            "contract": "contracts/ProofOfAttention.sol:ProofOfAttention",
            "label": "ipfsProofHash",
            "offset": 0,
            "slot": "5",
            "type": "t_string_storage"
          },
          {
            "astId": 2321,
            "contract": "contracts/ProofOfAttention.sol:ProofOfAttention",
            "label": "isValidated",
            "offset": 0,
            "slot": "6",
            "type": "t_bool"
          },
          {
            "astId": 2323,
            "contract": "contracts/ProofOfAttention.sol:ProofOfAttention",
            "label": "isRewarded",
            "offset": 1,
            "slot": "6",
            "type": "t_bool"
          },
          {
            "astId": 2325,
            "contract": "contracts/ProofOfAttention.sol:ProofOfAttention",
            "label": "rewardAmount",
            "offset": 0,
            "slot": "7",
            "type": "t_uint256"
          }
        ],
        "numberOfBytes": "256"
      },
      "t_struct(Counter)895_storage": {
        "encoding": "inplace",
        "label": "struct Counters.Counter",
        "members": [
          {
            "astId": 894,
            "contract": "contracts/ProofOfAttention.sol:ProofOfAttention",
            "label": "_value",
            "offset": 0,
            "slot": "0",
            "type": "t_uint256"
          }
        ],
        "numberOfBytes": "32"
      },
      "t_struct(ValidationCriteria)2337_storage": {
        "encoding": "inplace",
        "label": "struct ProofOfAttention.ValidationCriteria",
        "members": [
          {
            "astId": 2328,
            "contract": "contracts/ProofOfAttention.sol:ProofOfAttention",
            "label": "minWatchDuration",
            "offset": 0,
            "slot": "0",
            "type": "t_uint256"
          },
          {
            "astId": 2330,
            "contract": "contracts/ProofOfAttention.sol:ProofOfAttention",
            "label": "maxWatchDuration",
            "offset": 0,
            "slot": "1",
            "type": "t_uint256"
          },
          {
            "astId": 2332,
            "contract": "contracts/ProofOfAttention.sol:ProofOfAttention",
            "label": "requireInteraction",
            "offset": 0,
            "slot": "2",
            "type": "t_bool"
          },
          {
            "astId": 2334,
            "contract": "contracts/ProofOfAttention.sol:ProofOfAttention",
            "label": "requireScrollDepth",
            "offset": 1,
            "slot": "2",
            "type": "t_bool"
          },
          {
            "astId": 2336,
            "contract": "contracts/ProofOfAttention.sol:ProofOfAttention",
            "label": "minScrollDepth",
            "offset": 0,
            "slot": "3",
            "type": "t_uint256"
          }
        ],
        "numberOfBytes": "128"
      },
      "t_uint256": {
        "encoding": "inplace",
        "label": "uint256",
        "numberOfBytes": "32"
      }
    }
  }
}